:1000000000000320D90400002105000025050000A0
:100010001D0500001D0500001D050000000000007A
:1000200000000000000000000000000029050000A2
:100030001D050000000000002D0500003105000036
:10004000D138000009390000413900007939000039
:10005000B1390000E9390000213A0000593A0000A6
:10006000913A0000C93A0000013B0000393B000012
:10007000713B0000A93B0000E13B0000193C00007F
:10008000750500001D0500001D0500001D05000090
:100090001D0500001D0500001D0500001D050000D8
:1000A000790500007D050000810500008505000040
:1000B000890500008D0500001D0500009105000068
:1000C00095050000990500009D050000A1050000B0
:1000D000A5050000A9050000AD0500001D050000F4
:1000E0001D0500001D0500001D0500001D05000088
:1000F0001D0500001D0500001D0500001D05000078
:100100001D0500001D0500001D0500001D05000067
:100110001D0500001D0500001D0500001D05000057
:100120001D0500001D0500001D0500001D05000047
:100130001D0500001D0500001D0500001D05000037
:100140001D050000B1050000B5050000B90500005F
:100150001D0500001D0500001D0500001D05000017
:100160001D0500001D050000BD050000C1050000C3
:10017000C5050000C9050000CD050000D10500003F
:10018000D5050000D9050000513D0000153D0000D7
:10019000293D00003D3D0000ED0500001D0500006B
:1001A0001D0500001D0500001D050000F1050000F3
:1001B0001D0500001D050000F5050000F905000003
:1001C000FD0500000106000005060000090600000C
:1001D0001D0500001D0500001D0500001D05000097
:1001E0001D0500001D0500001D0500001D05000087
:1001F0001D0500001D0500001D0500001D05000077
:100200001D0500001D0500001D0500001D05000066
:1003F0001D0500001D0500001D050000FFFFFFFF9B
:10040000FFFFFFFFFFFFFFFFFFFFFFFFFEFFFFFFFD
:1004100010B5054C237833B9044B13B10448AFF33E
:1004200000800123237010BD8000FF1F000000002A
:10043000E072000008B5064B1BB106480649AFF351
:1004400000800648036813B1054B03B1984708BD07
:1004500000000000E07200008400FF1F7C00FF1F0E
:1004600000000000154B002B08BF134B9D46A3F561
:10047000803A00218B460F461348144A121A05F0A1
:1004800036FF0F4B002B00D098470E4B002B00D0AF
:1004900098470020002104000D000D48002802D0DC
:1004A0000C48AFF3008005F0F3FE2000290002F0B5
:1004B00007FD05F0D9FE00BF000008000000032082
:1004C00000000000000000008000FF1F141AFF1F42
:1004D000000000000000000072B6094809490160F0
:1004E0000948804709490A4A0A4B9A42BEBF51F857
:1004F000040B42F8040BF8E762B607488047000097
:1005000008ED00E000000000912E0000FC730000E8
:100510000000FF1F8000FF1F65040000FFF7FEBF03
:100520003A4800473A4800473A4800473A480047A7
:100530003A4800473A4800473A4800473A48004797
:100540003A4800473A4800473A4800473A48004787
:100550003A4800473A4800473A4800473A48004777
:100560003A4800473A4800473A4800473A48004767
:100570003A4800473A4800473A4800473A48004757
:100580003A4800473A4800473A4800473A48004747
:100590003A4800473A4800473A4800473A48004737
:1005A0003A4800473A4800473A4800473A48004727
:1005B0003A4800473A4800473A4800473A48004717
:1005C0003A4800473948004738480047374800470D
:1005D000364800473548004735480047354800470A
:1005E00035480047354800473548004735480047FB
:1005F00035480047354800473448004733480047EE
:100600003248004731480047304800472105000084
:1006100025050000290500002D050000310500001A
:100620001D0500001D0500001D0500001D05000042
:100630001D0500001D0500001D0500001D05000032
:100640001D0500001D0500001D0500001D05000022
:100650001D0500001D0500001D0500001D05000012
:100660001D050000F94100000D4200004D3700005B
:100670008137000081480000B5480000A94D000006
:100680001D050000C94D00001D050000E94D0000DA
:100690001D050000094E00001D050000B5370000D3
:1006A000294E00001D0500002142000061410000AC
:1006B000E54A00001D0500001D0500001D050000A5
:1006C0001D05000041450000354200009541000035
:1006D00081F0004102E000BF83F0004330B54FEAF3
:1006E00041044FEA430594EA050F08BF90EA020F60
:1006F0001FBF54EA000C55EA020C7FEA645C7FEAF3
:10070000655C00F0E2804FEA5454D4EB5555B8BF15
:100710006D420CDD2C4480EA020281EA030382EA86
:10072000000083EA010180EA020281EA0303362D18
:1007300088BF30BD11F0004F4FEA01314FF4801CEB
:100740004CEA113102D0404261EB410113F0004FFD
:100750004FEA03334CEA133302D0524263EB4303B4
:1007600094EA050F00F0A780A4F10104D5F1200E52
:100770000DDB02FA0EFC22FA05F2801841F10001AD
:1007800003FA0EF2801843FA05F359410EE0A5F181
:1007900020050EF1200E012A03FA0EFC28BF4CF0B2
:1007A000020C43FA05F3C01851EBE37101F0004568
:1007B00007D54FF0000EDCF1000C7EEB00006EEB75
:1007C0000101B1F5801F1BD3B1F5001F0CD34908FF
:1007D0005FEA30004FEA3C0C04F101044FEA445256
:1007E00012F5800F80F09A80BCF1004F08BF5FEADD
:1007F000500C50F1000041EB045141EA050130BDBD
:100800005FEA4C0C404141EB010111F4801FA4F15F
:100810000104E9D191F0000F04BF01460020B1FAB4
:1008200081F308BF2033A3F10B03B3F120020CDAEC
:100830000C3208DD02F1140CC2F10C0201FA0CF0CA
:1008400021FA02F10CE002F11402D8BFC2F1200C2F
:1008500001FA02F120FA0CFCDCBF41EA0C019040E5
:10086000E41AA2BF01EB0451294330BD6FEA04042E
:100870001F3C1CDA0C340EDC04F11404C4F1200219
:1008800020FA04F001FA02F340EA030021FA04F32B
:1008900045EA030130BDC4F10C04C4F1200220FA82
:1008A00002F001FA04F340EA0300294630BD21FAC0
:1008B00004F0294630BD94F0000F83F4801306BF86
:1008C00081F480110134013D4EE77FEA645C18BF7A
:1008D0007FEA655C29D094EA050F08BF90EA020F11
:1008E00005D054EA000C04BF1946104630BD91EA09
:1008F000030F1EBF0021002030BD5FEA545C05D10C
:100900004000494128BF41F0004130BD14F580044A
:100910003CBF01F5801130BD01F0004545F0FE41BE
:1009200041F470014FF0000030BD7FEA645C1ABFF3
:10093000194610467FEA655C1CBF0B46024650EA2A
:10094000013406BF52EA033591EA030F41F4002156
:1009500030BD00BF90F0000F04BF0021704730B5DC
:100960004FF4806404F132044FF000054FF00001B1
:1009700050E700BF90F0000F04BF0021704730B572
:100980004FF4806404F1320410F0004548BF404247
:100990004FF000013EE700BF42004FEAE2014FEA9C
:1009A00031014FEA02701FBF12F07F4393F07F4F77
:1009B00081F06051704792F0000F14BF93F07F4FA9
:1009C000704730B54FF4607401F0004521F00041EC
:1009D00020E700BF50EA010208BF704730B54FF072
:1009E00000050AE050EA010208BF704730B511F077
:1009F000004502D5404261EB41014FF4806404F1AF
:100A000032045FEA915C3FF4DCAE4FF003025FEA30
:100A1000DC0C18BF03325FEADC0C18BF033202EBB8
:100A2000DC02C2F1200300FA03FC20FA02F001FA12
:100A300003FE40EA0E0021FA02F11444C1E600BFB1
:100A400070B54FF0FF0C4CF4E06C1CEA11541DBF64
:100A50001CEA135594EA0C0F95EA0C0F00F0DEF82F
:100A60002C4481EA030621EA4C5123EA4C5350EA14
:100A7000013518BF52EA033541F4801143F4801365
:100A800038D0A0FB02CE4FF00005E1FB02E506F0F6
:100A90000042E0FB03E54FF00006E1FB03569CF04B
:100AA000000F18BF4EF0010EA4F1FF04B6F5007F51
:100AB00064F5407404D25FEA4E0E6D4146EB0606C3
:100AC00042EAC62141EA55514FEAC52040EA5E504C
:100AD0004FEACE2EB4F1FD0C88BFBCF5E06F1ED8F6
:100AE000BEF1004F08BF5FEA500E50F1000041EB2D
:100AF000045170BD06F0004646EA010140EA0200DA
:100B000081EA0301B4EB5C04C2BFD4EB0C0541EAFB
:100B1000045170BD41F480114FF0000E013C00F310
:100B2000AB8014F1360FDEBF002001F0004170BD34
:100B3000C4F10004203C35DA0C341BDC04F114044D
:100B4000C4F1200500FA05F320FA04F001FA05F2D9
:100B500040EA020001F0004221F0004110EBD370A6
:100B600021FA04F642EB06015EEA430E08BF20EAD2
:100B7000D37070BDC4F10C04C4F1200500FA04F375
:100B800020FA05F001FA04F240EA020001F0004107
:100B900010EBD37041F100015EEA430E08BF20EA7A
:100BA000D37070BDC4F1200500FA05F24EEA020EC2
:100BB00020FA04F301FA05F243EA020321FA04F0F1
:100BC00001F0004121FA04F220EA020000EBD370A8
:100BD0005EEA430E08BF20EAD37070BD94F0000FA8
:100BE0000FD101F00046400041EB010111F4801FDC
:100BF00008BF013CF7D041EA060195F0000F18BF8D
:100C0000704703F00046520043EB030313F4801FC8
:100C100008BF013DF7D043EA0603704794EA0C0F82
:100C20000CEA135518BF95EA0C0F0CD050EA410698
:100C300018BF52EA4306D1D181EA030101F0004115
:100C40004FF0000070BD50EA410606BF104619463D
:100C500052EA430619D094EA0C0F02D150EA013649
:100C600013D195EA0C0F05D152EA03361CBF10468A
:100C700019460AD181EA030101F0004141F0FE4129
:100C800041F470014FF0000070BD41F0FE4141F4AD
:100C9000780170BD70B54FF0FF0C4CF4E06C1CEAAD
:100CA00011541DBF1CEA135594EA0C0F95EA0C0F62
:100CB00000F0A7F8A4EB050481EA030E52EA03351D
:100CC0004FEA013100F088804FEA03334FF080553E
:100CD00045EA131343EA12634FEA022245EA11156B
:100CE00045EA10654FEA00260EF000419D4208BF1C
:100CF000964244F1FD0404F5407402D25B084FEAC9
:100D00003202B61A65EB03055B084FEA32024FF474
:100D100080104FF4002CB6EB020E75EB030E22BFD1
:100D2000B61A754640EA0C005B084FEA3202B6EB91
:100D3000020E75EB030E22BFB61A754640EA5C0040
:100D40005B084FEA3202B6EB020E75EB030E22BFD0
:100D5000B61A754640EA9C005B084FEA3202B6EBD1
:100D6000020E75EB030E22BFB61A754640EADC0090
:100D700055EA060E18D04FEA051545EA16754FEAF2
:100D800006164FEAC30343EA52734FEAC2025FEA10
:100D90001C1CC0D111F4801F0BD141EA00014FF09F
:100DA00000004FF0004CB6E711F4801F04BF014370
:100DB0000020B4F1FD0C88BFBCF5E06F3FF6AFAE8C
:100DC000B5EB030C04BFB6EB020C5FEA500C50F11C
:100DD000000041EB045170BD0EF0004E4EEA11319F
:100DE00014EB5C04C2BFD4EB0C0541EA045170BDA6
:100DF00041F480114FF0000E013C90E645EA060EEA
:100E00008DE60CEA135594EA0C0F08BF95EA0C0F17
:100E10003FF43BAF94EA0C0F0AD150EA01347FF45F
:100E200034AF95EA0C0F7FF425AF104619462CE736
:100E300095EA0C0F06D152EA03353FF4FDAE104699
:100E4000194622E750EA410618BF52EA43067FF4EA
:100E5000C5AE50EA41047FF40DAF52EA43057FF47A
:100E6000EBAE12E74FF0FF3C06E000BF4FF0010C85
:100E700002E000BF4FF0010C4DF804CD4FEA410CE9
:100E80007FEA6C5C4FEA430C18BF7FEA6C5C1BD0B6
:100E900001B050EA410C0CBF52EA430C91EA030F37
:100EA00002BF90EA020F0020704710F1000F91EA94
:100EB000030F58BF994208BF90422CBFD8176FEA62
:100EC000E37040F0010070474FEA410C7FEA6C5C30
:100ED00002D150EA013C07D14FEA430C7FEA6C5C37
:100EE000D6D152EA033CD3D05DF8040B704700BF63
:100EF0008446104662468C461946634600E000BFB1
:100F000001B5FFF7B7FF002848BF10F1000F01BD82
:100F10004DF808EDFFF7F4FF0CBF012000205DF84D
:100F200008FB00BF4DF808EDFFF7EAFF34BF0120D2
:100F300000205DF808FB00BF4DF808EDFFF7E0FF6B
:100F400094BF012000205DF808FB00BF4DF808EDBC
:100F5000FFF7CEFF94BF012000205DF808FB00BF23
:100F60004DF808EDFFF7C4FF34BF012000205DF805
:100F700008FB00BF4FEA410212F5001215D211D54D
:100F80006FF47873B3EB625212D94FEAC12343F086
:100F9000004343EA505311F0004F23FA02F018BF08
:100FA000404270474FF00000704750EA013005D1D1
:100FB00011F0004008BF6FF0004070474FF0000094
:100FC000704700BF73B96AB9002908BF0028BCBFC9
:100FD00000204FF00041C4BF6FF000414FF0FF30E0
:100FE00001F00EB882B0EC462DE9005000F056F842
:100FF000DDF804E002B00CBC704700BF4BB942B949
:10100000002908BF002802D04FF0FF31084600F049
:10101000F7BF82B0EC462DE9005000F057F8DDF83C
:1010200004E002B00CBC704738B50022002304462F
:101030000D46FFF777FF28B920462946BDE838401E
:1010400000F00AB8204605F1004100F005F84042E2
:1010500061EB410138BD00BF70B500220D4B044665
:101060000D46FFF7EDFC00F0CDFF0646FFF772FCE2
:101070000022094BFFF7E4FC02460B4620462946B6
:10108000FFF72AFB00F0BEFF002242EA00042046E0
:10109000314670BD0000F03D0000F0412DE9704385
:1010A000069E14461D468046894600F0CBFF04FB91
:1010B00001F300FB0533A4FB00451D44B8EB040419
:1010C00069EB0505C6E90045BDE870832DE970436D
:1010D000069E1446804689461D4601F0FFF800FB37
:1010E00005F504FB0153A0FB04451D44B8EB0404C3
:1010F00069EB0505C6E90045BDE8708303685A0041
:101100004CBF43F0004323F000431844704700BF36
:101110002DE9F04F064683B0914621B30139019184
:101120008846002707EB080404EBD4746410E5003C
:1011300006EB050B5846FFF7E1FF019B8246A342F1
:1011400005F10800304419D0FFF7D8FFCA4500F177
:10115000FF3004D9BC420BD004F1FF38E2E7484528
:1011600002D2671CDEE78B46584603B0BDE8F08F1D
:101170004FF0000B584603B0BDE8F08FCA45E9D8E0
:10118000F2E700BF012807D0022807D0044B00284F
:101190000CBF18460020704702487047024870474D
:1011A000B5180000BD180000C518000030B5274B69
:1011B00083B004468D1E002B42D0284601A9AFF310
:1011C0000080034623B32A460199FFF7A1FF054695
:1011D00018B3FFF793FF6B68A064012B12D0002BAC
:1011E00005F1040028DBFFF789FF0023E064236595
:1011F0000368002B16DBFFF781FF002320611846F0
:1012000003B030BD002323610523184603B030BD71
:1012100023610923184603B030BD09232061184615
:1012200003B030BDC3F30360FFF7ACFF00282061BB
:1012300014BF00230923E2E70123E0642365D7E715
:10124000034B04481B1ADB100193BCE700000000AD
:10125000F47300001C7300000368DA0710B504463D
:1012600006D49B0700F1480009D500F069FC23680B
:10127000590709D51A070ED5DB0613D510BD00F0A6
:1012800057FC23685907F5D404F1D00000F060FC46
:1012900023681A07F0D404F5A87000F061FC2368F5
:1012A000DB06EBD404F5E870BDE8104000F09CBC10
:1012B00003680BB1184470471846704709207047FF
:1012C000704700BF70B504460D4608E02B6C6361A3
:1012D0000120236921462A469847082808D120463C
:1012E000296CFFF763FF06460028EFD004F0AEFF3D
:1012F0000728FBD13046296CFFF7E2FF281D00F0DC
:101300000BFC00BF2DE9F0470C1D054617460FCC1E
:10131000ADF5727D03AE0FC60FCC0FC60FCC0FC656
:1013200094E80F0002AC4FF0000ED5F80C80D5F811
:10133000189086E80F002846216CC4F800E0FFF7FB
:1013400035FF002F064614BF0A27092786B1A06B78
:101350002A468DE8100247F0100160642B460120F8
:10136000C04700282FD130460DF5727DBDE8F087CB
:10137000236C6B6121464FF4F0727AA804F0AEFF43
:101380002B6929467AAA38469847889B82468DE879
:1013900010023946636401202A462B46C04790B9A3
:1013A00020467AA94FF4F07204F098FFBAF1080FC2
:1013B00006D12846216CFFF7F9FE09270646C5E746
:1013C000BAF1070F04D009200DF5727DBDE8F08752
:1013D0003046216CFFF774FF03A800F09DFB00BFAF
:1013E000406C7047F0B5CB6B0B640E1D0F46044686
:1013F0000FCEF9B001AD0FC50FCE0FC50FCE0FC583
:1014000096E80F004FF0FF3685E80F00009606E0E3
:10141000236921466A4698470828054608D1204690
:101420001099FFF7C3FE0028F2D0092079B0F0BD73
:101430006846FFF711FF062DF7D120463946FFF722
:1014400041FF00BF30B4DD6BC160826119461D648D
:10145000002230BCFFF756BF70B5C66843690B6405
:1014600004460D4626B10122FFF74CFF04F0EEFEC4
:101470000369214602202A469847072807D00828F2
:1014800003D120462946FFF71DFF04F0DFFE30465A
:10149000296CFFF715FF281D00F03EFBC26822B142
:1014A000CA6B0A640022FFF72DBF9BE7704700BF9D
:1014B00008B5836813B101460120984708BD00BFF5
:1014C00010B4042909D8DFE801F00703080303007A
:1014D00001205DF8044B70471BB102205DF8044BFE
:1014E00070470F2AF9D800EB820218465368019A18
:1014F0001360EEE700B585B00A4603AB0021009308
:101500000B46FFF7DDFF039805B05DF804FB00BF55
:1015100010B4042909D8DFE801F007030803030029
:1015200001205DF8044B70471BB102205DF8044BAD
:1015300070470F2AF9D800EB8202019801685160C8
:101540001846EEE710B584B004AB0C4643F8042D02
:101550000021009322460B46FFF7DAFF04B010BDCE
:10156000F0B5D36B1364151D07460E460FCDADF5D0
:101570000F7D17AC0FC40FCD0FC40FCD0FC495E86E
:101580000F004FF0FF3584E80F00169510E016A805
:10159000FFF7D8FF314616A8B847694616AA78B9AA
:1015A000049B08209847052804460AD0092807D03C
:1015B00026996846FFF7FAFD6A460C210028E6D016
:1015C000092416A8FFF748FE20460DF50F7DF0BD53
:1015D0002DE9F04F0C46C96C8BB01D460E1D0B68F3
:1015E00007939046089600F00309002D40F089808B
:1015F0001B02032207938DF825508DF82420236DBC
:10160000B9F1020F08BFA66B13F0010342D100F03D
:101610000800C0B2039002933768002F3CD0022D1F
:101620006BD03788B6F802A00436A36C2AF0010B01
:1016300040460F219B44FFF75DFF834536D827F0D6
:1016400001039B440AF0010A07F00107584547EAE5
:101650004A072CBF00200120012F31D060D3022F78
:1016600020D1336823F000410191B9F1000F40F01F
:10167000858030B1039A002A00F08D80002900F0A7
:10168000B080002BC0F28580019B03F1010A06EBBC
:101690008A06C1E700210291022D49DDFFF70EFE07
:1016A00000284BD009200BB0BDE8F08F0AF0010AEA
:1016B00007F0010747EA4A07012F4FF00000CDD19C
:1016C000B9F1000F41D1B0B196E80C00D70F9A1CC8
:1016D000E8D004F158010133069100F0AD80301DCF
:1016E000FFF7E6FD3A46014606AB2046AFF3008021
:1016F000002840F0CF8008368EE7D6F804A00836E0
:1017000093E7022D3FF77BAF1A0CD7B21B040221DF
:101710008DF8252006EB870607938DF824106EE7D9
:10172000B9F1000F02D0002840F09080043673E732
:10173000404607A900F0F0FA0028B3D1029A002A27
:1017400059D108200BB0BDE8F08F40460D21276A23
:10175000FFF7D0FE8742CED1A36A9E42CBD130465E
:10176000FFF7CCFC0F2102464046FFF7EBFE404658
:1017700022460021FFF7E6FE072094E740460D21B0
:10178000276AFFF7B7FE874245D03368002BBFF6C4
:101790007BAF043678E7019919B304F1580CCDF802
:1017A00010900595371DDDF80CB0DDF80490654606
:1017B00002E0CA4515D0D34638460695FFF778FDB6
:1017C0000022014606AB2046AFF300800BF1010A70
:1017D00004370028EDD0019BDDF81090059D5B4596
:1017E000D3D140460D21FFF785FE069B2062A662FD
:1017F0006362062057E70F214046FFF77BFE0E216C
:1018000002464046FFF79EFE40460F21284AFFF75A
:1018100099FE072047E7A36A9E42B6D1042200271B
:10182000B3180199A162E762226363633368BB4224
:101830001FDB0122029227E740460D21FFF75AFEE7
:101840002062069B6362A66206202CE73046FFF703
:1018500055FC04360546A6632046AFF300800028F9
:101860003FF420AF40462A460F21FFF76BFE0720CA
:1018700019E7481C06EB8000FFF740FC0F210246E9
:101880004046FFF75FFE404639462246FFF75AFEC4
:10189000072008E707460D214046FFF72BFE022FE1
:1018A0002062CED12346069A43F82C2F6362CAE702
:1018B000000000000023FFF78BBE00BF0123FFF7ED
:1018C00087BE00BF0223FFF783BE00BF2DE9F041B2
:1018D0000446C4B004290BD8DFE801F059030A30EC
:1018E0000E00012B4FEA124596B266D0052B6BD045
:1018F000022044B0BDE8F081002BF9D1102AF7D8BE
:101900002368D90600F1D38022AE3046019200F060
:1019100075F9A56B019A0023012000FA03F1114229
:1019200003D0296846F8231004350133042BF4D181
:101930003046A56300F058F90020DAE7032BD7D131
:10194000150C97B27B19102BD2D823681E0700F113
:10195000BF8022AE304600F025F9D4F838E07F0091
:1019600006EBC5007B1E72465FB1CEEB0000AEF108
:101970000402013B52F8041F81505D1CF9D10EEBAB
:1019800087023046A26300F0EBF80020B1E7002B9D
:10199000AED1A56B96B2012000FA03F1314204D01A
:1019A00004EB83072968796004350133102BF3D1E8
:1019B00012F4005075D1A5639BE77219102A97D8CD
:1019C0000F2D95D8002708E07719202F90D80F2DDC
:1019D00069D9374646B30F2D11D82268D0070ED5E6
:1019E00022F00101052B2160204600F08B8022F0BF
:1019F000030240F8482B019300F09EF8019B17B1B9
:101A0000226851076CD4012B74D00F2D04D822A862
:101A1000019300F099F8019B37B102A8019300F0FF
:101A20009BF8019BC5F11006D4F83880002EC446FF
:101A300012DD22AA4FEA460C02EBC506C8EB0606E9
:101A40000CF1FF31A8F1040252F8040FB050013933
:101A5000481CF9D108EB8C0CB7B144AA102D2CBF4F
:101A60002846102002EBC0004FEA4708A0F5C470DA
:101A700008F1FF32614651F8046B40F8046B013AFB
:101A8000561CF8D10CEB880C012B1AD00F2DC4F882
:101A900038C002D822A800F053F817B102A800F00D
:101AA00057F8002025E7102F8CD9103F93E723F03B
:101AB0001003236004F5E870019200F09FF8019A8A
:101AC00022E70CF10403A36322A800F031F8E8E751
:101AD00023F00803236004F5A87000F063F838E7EA
:101AE000204622F0040240F8D02B019300F034F895
:101AF000019B88E722A8019300F01EF8019B002FAC
:101B000090D191E741F0020140F8481B019300F0A9
:101B10001BF8019B73E700BF00F1340191E8380026
:101B20009C46A6464CF8045D90E8FF0FE54600BDD4
:101B300090EC210B704700BF80EC210B704700BF79
:101B400090EC200B704700BF80EC200B704700BF6B
:101B5000D0EC200B704700BFC0EC200B704700BFDB
:101B6000F0EC0201F0EC0211F0EC0221F0EC023199
:101B7000F0EC0241F0EC0251F0EC0261F0EC027189
:101B8000F0EC0281F0EC0291F0EC02A1F0EC02B179
:101B9000F0EC02C1F0EC02D1F0EC02E1F0EC02F169
:101BA000704700BFE0EC0201E0EC0211E0EC022122
:101BB000E0EC0231E0EC0241E0EC0251E0EC0261C9
:101BC000E0EC0271E0EC0281E0EC0291E0EC02A1B9
:101BD000E0EC02B1E0EC02C1E0EC02D1E0EC02E1A9
:101BE000E0EC02F1704700BFB0FC0181B0FC019154
:101BF000B0FC01A1B0FC01B1704700BFA0FC0181A5
:101C0000A0FC0191A0FC01A1A0FC01B1704700BFA4
:101C1000EC4600B52DE900502DE9FF1F4FF0000301
:101C20002DE90C0001A9FFF7DDFBDDF840E012B063
:101C3000704700BFEC4600B52DE900502DE9FF1FAD
:101C40004FF000032DE90C0001A9FFF705FCDDF8BA
:101C500040E012B0704700BFEC4600B52DE90050DF
:101C60002DE9FF1F4FF000032DE90C0001A9FFF73C
:101C700015FCDDF840E012B0704700BFEC4600B53F
:101C80002DE900502DE9FF1F4FF000032DE90C0056
:101C900001ABFFF7D7FBDDF840E012B0704700BFA3
:101CA000EC4600B52DE900502DE9FF1F4FF0000371
:101CB0002DE90C0001AAFFF753FCDDF840E012B05B
:101CC000704700BF037A1BB9437A43B9B02070470D
:101CD0000268013B037213020360100E70474268F2
:101CE000013B4372111D126841600323037213020A
:101CF0000360100E704700BF00B585B003AB002134
:101D000000930C220B46FFF7DBFB039805B05DF850
:101D100004FB00BFFFF7F0BF2DE9F043064685B096
:101D20000D464FF000082846FFF7CCFFB0280446C8
:101D300000F0AC8020F07F0212F0FF0120D000F014
:101D4000F002802A73D0902A36D0A02A42D0B02A3E
:101D500056D0C02A00F0828000F0F803D02B0BD1BF
:101D600000F00704621C42F40022304601210523E2
:101D7000FFF7ACFD0028D6D0092005B0BDE8F08300
:101D800003AF4FEA80090B46009730460D22FFF75C
:101D900097FB5FFA89F9039B09F1040960064CBFC0
:101DA000C9EB03034B440393002100970B463046D5
:101DB0000D22FFF7ADFBB6E700F00D030D2BDBD0D6
:101DC00003AF002100F00F0200970B463046FFF7EB
:101DD00077FBE9E7C2434FF47F6302F0070243FA5F
:101DE00002F2010702EA03024FF0000148BF42F489
:101DF00080420B463046FFF769FD0028BCD192E7D0
:101E0000B12848D0B22851D0B3287CD000F0FC03D0
:101E1000B42BB1D000F007020132012142F40022BC
:101E20000B463046FFF752FD0028A5D17BE7284638
:101E3000FFF748FF24022043B0F5004F9CD0040177
:101E40000021A2B20B463046FFF740FD002893D197
:101E500014F4004F18BF4FF0010864E7C6285ED0A5
:101E6000C72868D000F0F803C02B77D0C82800F04E
:101E70008D80C92880D12846FFF724FF00F00F038A
:101E8000013300F0F00243EA02326EE7B8F1000FCE
:101E90006BD0002071E72846FFF714FF02460028A8
:101EA0003FF46AAF10F0F001BAD065E7002103AF4C
:101EB0000D220B4600973046FFF702FB2846FFF73E
:101EC00001FF02064FF002040CD5039B00F07F00D7
:101ED000A040034428460393FFF7F4FE030604F1F1
:101EE0000704F2D4039B009700F07F0000FA04F48B
:101EF00003F5017300211C4430460B460D22039468
:101F0000FFF706FB0FE72846FFF7DCFE00F00F03A4
:101F1000013300F0F002012143EA023280E7284653
:101F2000FFF7D0FE00F00F03013300F0F0020321B1
:101F300043EA023274E72846FFF7C4FE024600284F
:101F40003FF41AAF10F0F0037FF416AF30460421CF
:101F5000FFF7BCFC00287FF40FAFE4E600F00F02AF
:101F60000132032142F420225AE703AC41460E22FB
:101F7000434600943046FFF7A3FA009430464146AA
:101F80000F224346FFF7C4FA4046F6E62846FFF71D
:101F900099FE00F0F00200F00F031032013343EA23
:101FA0000232E2E600B5C36C85B05A6803208DF8B2
:101FB0000C00084611020191DA798DF80D200833E2
:101FC00001A90293FFF7A8FE05B05DF804FB00BF6E
:101FD00008B5FFF79FFE806C08BD00BF08B5FFF78E
:101FE00099FEC36CDA7903EB8200083008BD00BFAC
:101FF00008B504F02BF900BF08B504F027F900BFBD
:10200000704700BF4A0011D212F5001211D20DD54F
:102010006FF47873B3EB62520ED44FEAC12343F0EE
:10202000004343EA505323FA02F070474FF0000098
:10203000704750EA013002D14FF0FF3070474FF047
:102040000000704700292DE9F00FC0F29F800024A6
:10205000002BC0F29680154606460F46002B3ED157
:102060008A4257D9B2FA82F34BB1C3F1200201FA86
:1020700003F720FA02F29D40174300FA03F6290CF9
:10208000B7FBF1F2330C01FB127CA8B243EA0C4718
:1020900000FB02F3BB4209D97F1902F1FF3C80F03B
:1020A0000181BB4240F2FE80023A2F44FF1AB7FB87
:1020B000F1F3B6B201FB137146EA014100FB03F0F4
:1020C000884208D9491903F1FF3780F0ED80884232
:1020D00040F2EA80023B43EA0242002303E08B42E3
:1020E0000AD900231A461046194614B1404261EB42
:1020F0004101BDE8F00F7047B3FA83F8B8F1000F63
:1021000040F084808B4202D3824200F2DE800023C2
:102110000122E8E712B90123B3FBF2F5B5FA85F223
:10212000002A39D17F1B280C1FFA85FC0123B7FB3D
:10213000F0F1320C00FB117742EA07470CFB01F289
:10214000BA4207D97F1901F1FF3802D2BA4200F230
:10215000C1804146BF1AB7FBF0F2B6B200FB127065
:1021600046EA00400CFB02FC844507D9401902F105
:10217000FF3702D2844500F2AB803A4642EA014280
:10218000B1E7E443524263EB430364E7404261EB4F
:1021900041014FF0FF345BE79540C2F1200327FA7D
:1021A00003F1280C26FA03F39740B1FBF0F81F4324
:1021B0003B0C00FB18111FFA85FC43EA01410CFBA4
:1021C00008F38B4206FA02F608D9491908F1FF32E2
:1021D00079D28B4277D9A8F102082944C91AB1FBF8
:1021E000F0F3BFB200FB131147EA01470CFB03F207
:1021F000BA4207D97F1903F1FF3160D2BA425ED9E2
:10220000023B2F44BF1A43EA084390E7C8F120027B
:1022100003FA08FC25FA02F343EA0C0C4FEA1C49C6
:1022200021FA02F301FA08F720FA02F2B3FBF9F1FE
:10223000174309FB11333A0C1FFA8CFB42EA0343A4
:102240000BFB01FA9A4505FA08F008D913EB0C03C9
:1022500001F1FF3235D29A4533D902396344CAEBD2
:102260000303B3FBF9F209FB1233BFB247EA03479A
:102270000BFB02F9B94508D917EB0C0702F1FF3344
:102280001BD2B94519D9023A674442EA0145A5FB78
:102290000001C9EB07078F424FF000030AD305D0B6
:1022A0002A4620E7624601E73B4614E706FA08F6AD
:1022B0008642F5D26A1E002315E71A46E5E70B466B
:1022C000A0E71146CBE7904688E7434642460AE737
:1022D000023A53E702392F443CE700BF2DE9F00FE3
:1022E000144605460E46002B43D18A4253D9B2FA12
:1022F00082F757B1C7F1200620FA06F601FA07F374
:1023000002FA07F41E4300FA07F5210CB6FBF1F2BE
:102310002B0C01FB1267A0B243EA074600FB02F355
:10232000B34209D9361902F1FF3780F0F680B34283
:1023300040F2F380023A2644F61AB6FBF1F3ADB24E
:1023400001FB136145EA014100FB03F0884208D913
:10235000091903F1FF3680F0E280884240F2DF8005
:10236000023B43EA0242002310461946BDE8F00F43
:1023700070478B424AD8B3FA83F6002E4DD18B4278
:1023800002D3824200F2D680002301221046194671
:10239000BDE8F00F704712B90124B4FBF2F4B4FAAF
:1023A00084F2002A7CD1091B260CA7B20123B1FBC1
:1023B000F6F02A0C06FB101142EA014107FB00F27D
:1023C0008A4207D9091900F1FF3C02D28A4200F281
:1023D000C3806046891AB1FBF6F2ADB206FB12115A
:1023E00045EA014507FB02F7AF4208D92C1902F173
:1023F000FF3180F09680A74240F29380023A42EA91
:10240000004210461946BDE8F00F704700231A46F7
:1024100010461946BDE8F00F7047C6F1200522FAB4
:1024200005F4B3401C434FEA144821FA05F301FABE
:1024300006F720FA05F5B3FBF8FC2F4308FB1C3325
:102440003D0C1FFA84FA45EA03430AFB0CF999454F
:1024500002FA06FB04D91B190CF1FF326DD3944626
:10246000C9EB0303B3FBF8F508FB1533BFB247EA2A
:1024700003470AFB05F8B84504D93F1905F1FF33B6
:1024800061D31D4645EA0C4CACFB0B23C8EB070798
:102490009F424FF0000549D345D062462B4663E783
:1024A0009440C2F1200321FA03FC260C20FA03F326
:1024B00001FA02F5BCFBF6F843EA05010B0C06FB3A
:1024C00018CCA7B243EA0C4C07FB08F3634500FAAB
:1024D00002F509D91CEB040C08F1FF323AD263452E
:1024E00038D9A8F10208A444C3EB0C0CBCFBF6F3EA
:1024F00089B206FB13CC41EA0C4107FB03F28A4286
:1025000007D9091903F1FF3022D28A4220D9023BB0
:102510002144891A43EA084349E73A460CE733461F
:102520001FE70A466BE7B0409042B6D20CF1FF328B
:10253000002319E73346324616E799458FD9ACF1A7
:10254000020C23448CE7B8459BD9023D274499E708
:102550000346DEE79046C7E7023821443AE700BF6A
:1025600013B5074B01901A7832B158689C6801A9DD
:102570000122A047012001E04FF0FF3002B010BD62
:102580009C00FF1F2DE9B041214C257885B088467D
:102590001F46002D36D1012A227019D0022A33D1CC
:1025A000606001A801F05AFF3A466068CDF80480E7
:1025B00001A901F0C5FE63689A6842F400229A609E
:1025C0009A6842F480229A60124BA360124B16E084
:1025D000606001A802F082FB3A466068CDF8048092
:1025E00001A902F0C5FA6368DA7842F00802DA70ED
:1025F000DA7842F00402DA70084BA360084BE3601B
:10260000284602E0012000E0042005B0BDE8B081CA
:102610009C00FF1FC1440000D74400002B4D000068
:10262000414D0000000000000FB42DE9F04FB34B06
:102630001B789DB0002B00F0198400200021CDE90B
:102640000401002627AB0F939A460B963446354675
:10265000269B93F90000002800F00684252840F00E
:10266000F98326994FF0000891F901202B2A0B4697
:1026700002D148F0020804E005DD2D2A0DD148F012
:1026800001080131F0E7202A02D148F00408F8E7F8
:10269000232A07D148F01008F3E7302A02D148F086
:1026A0000808EEE700210A9193F90110A1F130002A
:1026B000092803F1010207D80A980A2303FB001135
:1026C00030390A911346EFE72E290ED14FF0000959
:1026D000134612F9011FA1F13000092807D80A2377
:1026E00003FB0911A1F13009F2E74FF0060993F954
:1026F0000120682A02D06C2A0BD015E093F9022041
:10270000682A02D048F0400809E0023348F0200867
:102710000AE093F902206C2A03D048F080080133C4
:1027200002E0023348F48078591C5B7826914FFA16
:1027300083FBBBF1640F02931AD0BBF1690F17D072
:1027400003F0DF035BB2462B00F0A580582B00F0AE
:10275000A280029AA2F16F03012B40F29C80BBF190
:10276000620F00F09880BBF1750F40F02D8392E06E
:1027700018F4807F0AD00AF1070A2AF00703D3E988
:10278000000103F1080ACDE9080107E0DAF800309A
:102790001846D917CDE908010AF1040A00238DF87B
:1027A0004C30DDE90823134304D130238DF84D303C
:1027B000012428E0DDE908450127204629460A22B0
:1027C0000023FEF7FFFB4FF00A0CA0FB0C230CFBD1
:1027D0000133A41A65EB0305002C75F1000205DA3C
:1027E00030220023121B63EB050301E014F13002D9
:1027F00013AB3C46FA5450EA010307F1010702D03B
:1028000004460D46D9E7DDE9080113AD002871F152
:102810000001254402DA01342D230AE018F0020FEA
:1028200002D001342B2304E018F004031CBF013450
:10283000202318F0080F11D01BB11846FFF790FEA7
:1028400001363746A31B0A9A3B44934204DA3020F0
:10285000FFF786FE0137F5E714460AE318F0010F8B
:1028600014D13746A21B0A983A44824206DA202045
:1028700001930137FFF774FE019BF3E7002B00F093
:10288000F8821846FFF76CFE0137F2E21BB11846DA
:10289000FFF766FE0136029921F02003462B40F037
:1028A00013810AF1070A2AF0070393ED007B03F175
:1028B000080A00238DF84C3051EC170B002200233E
:1028C0008DED027BFEF724FB074620B130238DF807
:1028D0004D300124A9E09DED020B10A802F008FB89
:1028E00055EC104B4F450DD0204629460022044B95
:1028F000FEF7A6F8013704460D46F3E79C00FF1FDC
:1029000000002440DDE9020100220023FEF71EFB47
:10291000F0B100229E4B20462946FDF7DFFE04461B
:1029200048460D46FEF716F89FED950B41EC110B4E
:1029300002F030FB2046294653EC102BFEF706FB35
:1029400030B3DDE910010022924BFDF7C7FE1DE018
:1029500000228F4B20462946FDF7BEFE044648461E
:102960000D46FDF7F7FF9FED880B41EC110B02F0D0
:1029700011FB2046294653EC102BFEF7DDFA38B147
:10298000DDE910010022834BFDF7A6FECDE9100121
:1029900000274F4528D000227F4B20462946FEF7CE
:1029A00079F9CDE90801FEF73FFB4FF00A0EA0FBD5
:1029B0000E230EFB013310461946FEF713F80B46A3
:1029C000024629462046FDF787FEFEF7D3FA1CABE8
:1029D00000283B44B4BFC0F13000303003F8230C72
:1029E0000137DDE90845D4E70DF14D032E22DA5514
:1029F000DDE91001DD19FEF7BDFA18B930236B705F
:102A0000BC1C12E009F101040A2290FBF2F302FB64
:102A100013000028C9EB0502B4BFC0F1300030300C
:102A2000105501340BB11846EEE713ADDDE9020194
:102A3000002200232544FEF775FA18B101344FF047
:102A40002D090CE018F0020F03D001344FF02B09D0
:102A500005E018F004091CBF01344FF0200918F0FC
:102A6000080F13D0B9F1000F03D04846FFF778FDE7
:102A700001363746A31B0A983B44834204DA3020D0
:102A8000FFF76EFD0137F5E70446F4E118F0010F9A
:102A900013D13746A31B0A993B448B4204DA20200A
:102AA000FFF75EFD0137F5E7B9F1000F00F0E381B4
:102AB0004846FFF755FD0137DDE1B9F1000F03D0BE
:102AC0004846FFF74DFD0136BBF1580F06D0BBF16C
:102AD000780F40F0BF800022029201E001230293B0
:102AE00018F4807F08D00AF1070A2AF0070303F1DF
:102AF0000809D3E9000105E0DAF800300AF1040919
:102B0000184600210023CDE904018DF84C30DDE9A1
:102B10000423134304D130238DF84D3001273DE0C9
:102B2000DDE904230124100940EA03710691180924
:102B300001010790069841EA107006990D9009016D
:102B40000C91DDE90C01121A63EB0103002B08BFA5
:102B50000A2A01D2303206E0029909B9612000E068
:102B600041200A3A121813AB2746E254DDE9062346
:102B7000134304F1010411D0DDE90623D3E700BFBC
:102B8000000000000000244000000000000024C0FD
:102B90000000E03F0000F03F0000244013AD18F0BB
:102BA00008023D4408F010031BD05BB13020FFF752
:102BB000D7FC029800280CBF78205820FFF7D0FCE3
:102BC000023601230A9CB246BA1B0A9952448A4231
:102BD0002EDA302001930AF1010AFFF7C1FC019BB4
:102BE000F2E718F0010F20D10BB1BC1C00E03C460D
:102BF000B246A21B0A985244824207DA202001936F
:102C00000AF1010AFFF7ACFC019BF2E783B1302027
:102C1000FFF7A6FC029900290CBF78205820FFF787
:102C20009FFC0AF1020A012302E0B2463C46134629
:102C300018F0100F12D08BB93020FFF791FC029AD8
:102C4000002A0CBF78205820FFF78AFC0AF1020AFC
:102C5000023403E00123D1460293B246BBF16F0F69
:102C600009D1D9F8003000211846CDE9040109F155
:102C70000409082125E0BBF1620F09D1D9F8003021
:102C800000211846CDE9040109F10409022118E0E8
:102C9000BBF1700F09D1D9F8003000211846CDE9F9
:102CA000040109F1040910210BE0BBF1750F0AD1F1
:102CB000D9F8003000211846CDE9040109F10409D2
:102CC0000A210B9106E0BBF1620F03D0BBF1700F3C
:102CD00040F0D38000238DF84C30DDE9042313430A
:102CE00004D130238DF84D3001242EE0DDE9044578
:102CF0004FF0010B0B980021C0B206460F4620464C
:102D0000294632463B46FEF779F9A0FB062306FB2F
:102D10000133A41A65EB0305002D08BF0A2C01D26C
:102D2000303406E0029A0AB1412200E061220A3CF6
:102D3000A41813AB0BF8034050EA01035C460BF1F7
:102D4000010B02D004460D46D4E713AD18F0080F6E
:102D500025440ED05646CAEB04030A9833448342F6
:102D600004DA3020FFF7FCFB0136F4E7B2460446F4
:102D70000FE018F0010F0CD15646CAEB04030A9974
:102D800033448B4204DA2020FFF7EAFB0136F4E7F4
:102D9000B246AB462F4638780AEB0B06F61B3D468B
:102DA000013F18B140B2FFF7DBFBF4E718F0010F69
:102DB000374653D0E31B0A9A334493424EDA20201D
:102DC000FFF7CEFB0136F5E7BBF1630F07D19AF9A8
:102DD00000000AF10409FFF7C3FB01363EE0BBF136
:102DE000730F36D10AF10409DAF800A0BAF1000F26
:102DF00034D0504603F0C8FA18F0010807460446DC
:102E00000CD1B346BB1B0A985B44834205DA2020F1
:102E1000FFF7A6FB0BF1010BF4E75E46B346C6EBEA
:102E20000A0313F80B0028B140B2FFF799FB0BF12E
:102E3000010BF4E75E46B8F1000F0FD0CBEB0703B0
:102E40000A9933448B4209DA2020FFF789FB0136C7
:102E5000F4E75846FFF784FB0136D146269A013243
:102E60002692CA46FFF7F4BB30460AE04FF0FF3027
:102E700007E03E460FE53E4626E6BBF1750F88D1DA
:102E800028E71DB0BDE8F04F04B07047AFF30080F5
:102E9000084BD3F8882042F47002C3F88820064B10
:102EA0004CF22052DA814DF62812DA814FF4E972A1
:102EB0001A80704700ED00E000200540000000008F
:102EC0002DE9F04F6E4C85B001F0EEFF01F0BCFF34
:102ED00001F0ACFF02A801F007FA204602A901F0B8
:102EE000C7F9132000F09AFA664B664AA0FB03016B
:102EF0000023FEF783F880B2A0602368624843F0A5
:102F000040032360614B4FF080625A60FFF78CFBF7
:102F100002242046FDF72EFD9FED550B41EC110BD1
:102F200002F038F85A4D51EC100BFEF723F805EB80
:102F3000840601340A2C46F8080CAB46E9D1002679
:102F400007EE906AF8EEE77A524FDFF8748117EED9
:102F5000900AFDF721FD48A3D3E9002304460D465E
:102F6000FDF7BCFBFEF706F8002247F82600002319
:102F700020462946FDF7B2FBFDF7FCFF48F8260086
:102F80000136B6F5007FDBD13D4B1A6842F00102F5
:102F90001A60414A1368591C404B0B40002B03DA5E
:102FA000013B63F00703013313603D4A5BF82330B4
:102FB0001360052691463B4BDFF808C11B68DFF81C
:102FC00008E1D9F800704FF47A725A43364B0192F7
:102FD0001A60364B1D68364B1868364B00211B684B
:102FE000CCF80010CEF800100C4642F20F7A54458F
:102FF0001DDC0131B94208BF002140F2AA43002084
:1030000048F8213005460B46BD420CDA013B214A07
:1030100048BF07F1FF3352F825A058F823200135A7
:1030200002FB0A00F0E7013440F2AA45DDE7CEF8E2
:1030300000101E49CCF800400D601D4908601D4974
:103040001D480B60174B1B684FF47A714B431B49AB
:103050000B60019942F210745A1A92FBF4F2D9F8FB
:103060000010FFF7E1FA013EA5D192E7AFF300802F
:1030700000000000000000409A9999999919374082
:103080000000044040420F00BC63000000E100E08B
:10309000B808FF1FDC08FF1F0800FF1F07000080A3
:1030A000D808FF1FE410FF1FDC10FF1FE810FF1FF0
:1030B000E010FF1FAC00FF1FD2630000B408FF1F29
:1030C000B400FF1FB000FF1F0400FF1FAFF300801C
:1030D000074B9A79D20702D4064B18687047187AC2
:1030E000054B1B68C0F3420023FA00F0704700BF95
:1030F000004006400C00FF1F1000FF1F08B50F4BDB
:103100001B7B03F00303012B0DD004D30C48022BCF
:1031100018BF002008BD0B4B186868B90A480B4A55
:103120000B4BDA2106E00B4B186828B90648074A12
:10313000094BDF2100F0EEFA08BD00BF0040064059
:10314000006CDC02041AFF1F3264000005640000FA
:1031500049640000001AFF1F5564000010B5124CAE
:10316000A379DB061DD4FFF7C9FFE0B123786178AE
:10317000227BC3F3C20311F0300F20FA03F002F0F8
:10318000030200D00AB1022A0DD1062B03D0072B6F
:1031900003D0400910BD142300E00C23B0FBF3F072
:1031A00010BD024B186810BD004006400C00FF1F08
:1031B00008B5084B1B781B0609D5074B186838B9AA
:1031C0000648074A074B40F26B1100F0A3FA0020B3
:1031D00008BD00BF00500640041AFF1F3264000003
:1031E0001E6500004964000008B50A4A13781B06F2
:1031F0000ED5094B1B6833B90848094A094B40F200
:10320000791100F087FA9078800923FA00F008BD60
:10321000002008BD00500640041AFF1F3264000061
:10322000046500004964000008B5104B1B68C3F337
:103230008143022B0ED0032B09D0ABB9FFF7D4FF8B
:10324000B0F5004F14BF00204FF4004008BD4FF40C
:103250007A7008BD064B186838B90648064A074B0D
:1032600040F28D1100F056FA002008BD00700440B5
:10327000001AFF1F326400001C6400005564000047
:10328000124B426841F2440170B55A5041F20402B7
:1032900005789E58417884782D0405F4403526F44D
:1032A0004036354349009D5001F00E0104F0010203
:1032B000114341F264029950C2781968920402F4F1
:1032C000402221F440210A431A6070BD007004407E
:1032D00010B50D4C637803F0020303F0FF008BB9C7
:1032E000A3799B060FD4FFF739FF60B1E278E3784A
:1032F000C2F34112520002EBD312044B33F81230E6
:10330000584310BD002010BD00400640E06400009E
:10331000044B1B7803F0020303F0FF000BB1FFF72F
:10332000D7BE70470040064010B50B4CA37903F0A0
:10333000400303F0FF006BB1FFF7E0FE237903F0D9
:1033400007030133B0FBF3F3607900F01F00103086
:103350005843400810BD00BF0040064010B541F280
:1033600004030F4CE358C3F30143012B08D004D3EB
:103370000C48032B18BF002004E0FFF7A9FF01E071
:10338000FFF7D2FF41F26403E258E35802F0010272
:10339000C3F3420302FB00000133B0FBF3F010BDA6
:1033A00000700440006CDC020C4A9379927CC3F3F9
:1033B0008103022BD2B20ED0032B03D0012B08D0F5
:1033C000FFF786BFD30602D5054B18687047FFF795
:1033D000ABBFFFF77DBEFFF791BE00BF00400640C8
:1033E000EC10FF1F08B5FFF7DFFF044A41F244036A
:1033F000D3581B0F0133B0FBF3F008BD007004403D
:1034000010B5FFF7ABFE044638B1FFF7CDFFB4EBC4
:10341000D00F94BF2046002010BD10BD08B5132862
:1034200053D8DFE800F00C0C1420295232363A52FF
:103430003E42464A4E5252520A54264808BDFFF7B1
:10344000B3FF41F24403244AD3581B0F07E0FFF7B0
:10345000ABFF41F24403204AD358C3F30363013363
:10346000B0FBF3F008BDFFF79FFF41F244031A4A97
:10347000D358C3F30353F2E7FFF796FF41F2440337
:10348000154AD358C3F30343E9E7BDE80840FFF703
:1034900065BFBDE80840FFF7C7BEBDE80840FFF7BD
:1034A000A3BEBDE80840FFF783BEBDE80840FFF7B4
:1034B000A7BFBDE80840FFF72BBFBDE80840FFF7F6
:1034C00007BFBDE80840FFF72FBF002008BD4FF43D
:1034D0007A7008BD006CDC020070044010B50E4B21
:1034E0001A7B197B00F0030401F0FC01214302F078
:1034F0000302197328B959784C0702D599798907BD
:10350000FCD5824205D040F2DD53013B01D000BF23
:10351000FBE7002010BD00BF0040064070B51E4B09
:103520009C799D791E7AC6F34206B242C4F38104A7
:10353000EDB219D0ED0709D4174B1D7A520002F0F5
:103540000E0205F0D0052A431A720DE0012C02D0BC
:103550001B789E07F0D5104B5D7805F0FE055D7079
:103560009D79ED07FCD4E7E70B4B5D7801F0010294
:1035700005F0FE052A435A701A7802F0FC02024355
:10358000012C1A7001D0820704D59A7902F0010249
:103590008A42FAD1002070BD0040064008B530B91B
:1035A0000E480F4A0F4B40F2993100F0B3F84278C1
:1035B0000D4B02F007021A715A79817802F0E0028D
:1035C00001F01F010A435A71197902780A4342F047
:1035D00040021A719A795206FCD508BD3264000087
:1035E000F4630000D864000000400640036849F618
:1035F0009702934230B505D914498B428CBF022102
:10360000012100E00021124B04791A7802F0F00247
:1036100022431A701A78847902F05F0222431A70EA
:10362000C2799201D2B29A700A4A4579547804F06C
:10363000C3042C4344EA01115170417929B11B782C
:10364000190602D593799B07FCD530BD00127A008C
:10365000005006400040064038B51A4B5A7802F038
:10366000FD025A701A7802F03B0242F080020446D2
:103670001A709879134A00F01C000828F9D1537980
:1036800003F0BF0353710F4DAB799806FBD414B907
:103690000846FFF783FF2B7C220102F0100203F0A3
:1036A000EF0313432B74074B9A7CC2F3001294422E
:1036B000F9D15A7942F040025A719A799206FCD5B2
:1036C000002038BD0040064038B50D46144632B9DA
:1036D0000C480D4A0D4B40F2CA6100F01BF8FFF791
:1036E000FDFE28462146FFF7B7FF094B1A7802F086
:1036F0003F021A70064B9B79C3F38103032BF9D168
:10370000002038BD32640000F0640000D86400007E
:103710000040064007B505460C460092194603488E
:103720002A462346FEF780FF00BEFDE73A6500000B
:1037300008B50368002BB4BF024B034B1B689847C6
:1037400008BD00BFFC10FF1F0011FF1F08B5074B8D
:10375000196831B90648074A074B40F24C61FFF738
:10376000D9FF0648BDE80840FFF7E2BFF010FF1F91
:103770007865000004660000D465000000C00240C7
:1037800008B5074B596831B90648074A074B40F25C
:103790005461FFF7BFFF0648BDE80840FFF7C8BF08
:1037A000F010FF1F7865000030660000E46500003F
:1037B00000D0024008B5074B996831B90648074A5E
:1037C000074B40F25C61FFF7A5FF0648BDE80840E3
:1037D000FFF7AEBFF010FF1F786500001A6600000B
:1037E000F465000000C00A401F2910B506D90F4833
:1037F0000F4A104B4FF4E471FFF78CFF00EB4113BD
:1038000003F5805318339B88C46A426A24FA01F096
:1038100022FA01F101F00101890000F0010041EA02
:103820004000C3F3C013184310BD00BF466600003C
:10383000726800009166000038B5014630B9214831
:10384000214A224B4FF44E71FFF764FF8368027CDC
:10385000DA77C368046813B94168012230E08268EE
:10386000007C02EB401000F58052183241F218053E
:1038700040599288C01AC2F3C012400912B900B967
:10388000087D01384B7CC0B25BB2984206D1CB7C3C
:103890000D7D9D420AD1CB7C5BB208E04B7C5BB2D4
:1038A000C31A04D50D7D43FA85F300E00023C0B2AE
:1038B0004874C87CC01AC0B2C87414B108464968BC
:1038C000A04738BD46660000636800003567000009
:1038D00008B50B480021FFF787FF420703D5094BC6
:1038E0001868FFF7A9FF06481021FFF77DFF43077F
:1038F00005D5044B186CBDE80840FFF79DBF08BD17
:10390000008000400411FF1F08B50B480121FFF79C
:103910006BFF420703D5094B5868FFF78DFF064838
:103920001121FFF761FF430705D5044B586CBDE833
:103930000840FFF781BF08BD008000400411FF1F51
:1039400008B50B480221FFF74FFF420703D5094B8B
:103950009868FFF771FF06481221FFF745FF4307FC
:1039600005D5044B986CBDE80840FFF765BF08BD5E
:10397000008000400411FF1F08B50B480321FFF72A
:1039800033FF420703D5094BD868FFF755FF0648B8
:103990001321FFF729FF430705D5044BD86CBDE879
:1039A0000840FFF749BF08BD008000400411FF1F19
:1039B00008B50B480421FFF717FF420703D5094B51
:1039C0001869FFF739FF06481421FFF70DFF430779
:1039D00005D5044B186DBDE80840FFF72DBF08BDA5
:1039E000008000400411FF1F08B50B480521FFF7B8
:1039F000FBFE420703D5094B5869FFF71DFF064838
:103A00001521FFF7F1FE430705D5044B586DBDE8BE
:103A10000840FFF711BF08BD008000400411FF1FE0
:103A200008B50B480621FFF7DFFE420703D5094B17
:103A30009869FFF701FF06481621FFF7D5FE4307F7
:103A400005D5044B986DBDE80840FFF7F5BE08BDED
:103A5000008000400411FF1F08B50B480721FFF745
:103A6000C3FE420703D5094BD869FFF7E5FE0648B8
:103A70001721FFF7B9FE430705D5044BD86DBDE804
:103A80000840FFF7D9BE08BD008000400411FF1FA9
:103A900008B50B480821FFF7A7FE420703D5094BDD
:103AA000186AFFF7C9FE06481821FFF79DFE430775
:103AB00005D5044B186EBDE80840FFF7BDBE08BD34
:103AC000008000400411FF1F08B50B480921FFF7D3
:103AD0008BFE420703D5094B586AFFF7ADFE064837
:103AE0001921FFF781FE430705D5044B586EBDE849
:103AF0000840FFF7A1BE08BD008000400411FF1F71
:103B000008B50B480A21FFF76FFE420703D5094BA2
:103B1000986AFFF791FE06481A21FFF765FE4307F2
:103B200005D5044B986EBDE80840FFF785BE08BD7B
:103B3000008000400411FF1F08B50B480B21FFF760
:103B400053FE420703D5094BD86AFFF775FE0648B6
:103B50001B21FFF749FE430705D5044BD86EBDE88E
:103B60000840FFF769BE08BD008000400411FF1F38
:103B700008B50B480C21FFF737FE420703D5094B68
:103B8000186BFFF759FE06481C21FFF72DFE43076F
:103B900005D5044B186FBDE80840FFF74DBE08BDC2
:103BA000008000400411FF1F08B50B480D21FFF7EE
:103BB0001BFE420703D5094B586BFFF73DFE064835
:103BC0001D21FFF711FE430705D5044B586FBDE8D3
:103BD0000840FFF731BE08BD008000400411FF1F00
:103BE00008B50B480E21FFF7FFFD420703D5094B2F
:103BF000986BFFF721FE06481E21FFF7F5FD4307EE
:103C000005D5044B986FBDE80840FFF715BE08BD09
:103C1000008000400411FF1F08B50B480F21FFF77B
:103C2000E3FD420703D5094BD86BFFF705FE0648B5
:103C30001F21FFF7D9FD430705D5044BD86FBDE819
:103C40000840FFF7F9BD08BD008000400411FF1FC8
:103C500010B531B909480A4A0A4B40F23C61FFF7F6
:103C600059FD446814F0406F07D04FF04064446041
:103C7000CC6914B101220B6AA04710BDA2680000F4
:103C8000336B0000BA65000010B531B909480A4A23
:103C90000A4B40F25161FFF73DFD446814F0407F4C
:103CA00007D04FF040744460CC6914B100220B6A15
:103CB000A04710BDA26800001C6B0000BA650000A0
:103CC00070B50D4631B90F480F4A104B40F2636191
:103CD000FFF720FD4268CC6912F4003F09D04FF491
:103CE00000324260426A22F00C0242624CB103226E
:103CF00005E04668064A3240426014B102222B6A4F
:103D0000A04770BDA26800008D680000BA65000081
:103D100000007C60024B03481968FFF799BF00BFA1
:103D20008411FF1F00000C40024B03481968FFF785
:103D3000ABBF00BF8411FF1F00000C40024B0348C3
:103D40001968FFF7BDBF00BF8411FF1F00000C40C2
:103D50007047036813F0005309D0406BC0F3036051
:103D60004000073081428CBF002001207047184678
:103D700070470000036803F07F03994270B5044662
:103D80000D46164605D91248124A134B4FF4FF71DF
:103D900007E0FFF7DEFF30B10D480E4A0F4B40F24F
:103DA0000221FFF7B7FC05F108031A011EB14FF01D
:103DB0000061A15000E0A65004EB031204EB0514CF
:103DC00000235360C4F88830C4F88C3070BD00BF45
:103DD000976B0000326E00006C6D0000B46500004F
:103DE000036803F07F03994270B505460E461446FA
:103DF00005D92348234A244B40F2FE2105E032B97D
:103E00001F48204A214B40F2FF21FFF783FCFFF7B8
:103E1000A0FF28B11A481B4A1D4B40F20631F4E7B7
:103E200005EB0611D1F88030C3F3036202F00B00FA
:103E3000022822D1D1F88400616860F31C0161601E
:103E4000A178C3F3405005EB061660F34511C3F3A8
:103E5000005060F30411C3F3034363F30301D6F886
:103E60008830A360D6F88C30E360022A41F2B94072
:103E7000A170AB6808BF002070BDAB68012070BDA9
:103E8000976B00004B6B00006C6D0000596D0000DB
:103E9000B465000010B531B91848194A194B40F201
:103EA0003931FFF737FC03689B0024D5D0F8803008
:103EB0004A68D0F8844064F31C024A608A78C3F3ED
:103EC000405464F34512C3F3005464F30412C3F383
:103ED000034363F30302D0F888308B60D0F88C3052
:103EE000CB608A70C26C4B88D2B262F3CF134B8026
:103EF0008368002010BD012010BD00BF976B00003B
:103F00001F6E0000596D0000F8B5054614460E46B8
:103F100029B91748174A184B40F2324109E00368A3
:103F200003F07F039A4206D91148124A134B40F21C
:103F30003341FFF7EFFB1146FFF70BFF074628B1B0
:103F40000B480C4A0E4B40F23741F2E7AB6A0122B4
:103F500002FA04F123EA0103AB62A31C21463444B4
:103F600046F823002846FFF705FF84F84C70F8BD9B
:103F7000976B00005C6B0000BA6500006C6D000080
:103F8000B465000070B5054614460E4629B91448BC
:103F9000144A154B40F2494109E0036803F07F03DE
:103FA0009A4206D90E480F4A104B40F24A41FFF799
:103FB000B1FB1146FFF7CDFE28B10948094A0C4B69
:103FC00040F24E41F3E7AA6A0123A34022EA030329
:103FD000AB62A31C344446F8230084F84C0070BD47
:103FE000976B0000BC6D0000BA6500006C6D0000AE
:103FF000B465000008B531B909480A4A0A4B40F2D5
:104000005C41FFF787FB03689B0005D5836A23F0BB
:10401000E003836200238B64002381F85C3008BDD9
:10402000976B0000766B0000BA6500002DE9F7433E
:1040300004460E4631B94648464A474B40F26F4166
:10404000FFF768FB056A454B2B4023B1434B2362C6
:1040500041F2BE4721E01D464FF00108236B08FAEC
:1040600005F818EA030F03D0A36A18EA030F03D177
:104070000135102DF0D168E096F85C30002B32D07D
:10408000B8F1800F2FDCB8F1400F58D0B8F1800F95
:1040900018D141F2BC47C4F83080D6F800C0BCF15A
:1040A000000F06D073680093204631463A462B46EF
:1040B000E047256A236B002BC5D1284B2B40002BF2
:1040C000C1D142E0B8F1200F3CD1B16C2046FFF7DE
:1040D000E1FE41F2BB47002818BF074631462046A3
:1040E000FFF788FFD7E7731993F84C20013A032AAA
:1040F00028D8DFE802F00202161EAB1C5FFA85F931
:1041000056F8232049462046FFF76AFE41F2B84799
:10411000002818BF0746314620464A46FFF732FFBF
:10412000B9E720463146EAB2FFF7EEFE41F2B54765
:10413000B1E7022283F84C2041F2B647ABE741F2E7
:10414000B447A8E741F2BF47A5E703B0BDE8F08355
:10415000976B0000D96D0000BA65000007000300EE
:1041600008B5074B196831B90648074A074B40F2B2
:10417000FA41FFF7CFFA0648BDE80840FFF756BFFF
:104180008811FF1F976B0000F36D0000966D000013
:104190000040024008B5074B596831B90648074A44
:1041A000074B40F20351FFF7B5FA0648BDE8084057
:1041B000FFF73CBF8811FF1F976B0000096E0000DE
:1041C000A96D000000400A4010B5C278D20603462F
:1041D0000C4602D48278920605D5054A1846126824
:1041E0002146904710BD034B1B68984710BD00BF88
:1041F000A011FF1FA411FF1F024B03481968FFF70E
:10420000E3BF00BF9011FF1F00600640024B034850
:104210005968FFF7D9BF00BF9011FF1F007006401B
:10422000024B03489968FFF7CFBF00BF9011FF1FF3
:1042300000600E40024B0348D968FFF7C5BF00BFBE
:104240009011FF1F00700E4008B5054B984205D035
:104250000448054A054B4621FFF75CFA002008BDDB
:1042600000000440656E0000486E00007C6E000097
:1042700038B505460C4629B91748184A184B4D2140
:10428000FFF748FAFFF7E0FF164B1A6842F0010209
:104290001A60E278237892005B0002F0040203F0D7
:1042A00002031343A278D20002F00802134362789B
:1042B000120102F0300213432B60A2792379D2005D
:1042C0009B0002F0780203F004031343627902F0CA
:1042D000030213436B6038BD656E00005A6E000028
:1042E000D86400003880044008B528B90748084A57
:1042F000084B6521FFF70EFA00230122037043707B
:104300008370C37002714271837108BD656E0000D5
:10431000A36E0000D864000008B5054B984205D094
:104320000448054A054B8621FFF7F4F9002008BD33
:1043300000400C40F16E0000C66E0000096F0000E6
:104340002DE9F84F044690460D4629B93F48404AAA
:10435000404BC421FFF7DEF9FFF7DEFF3E4B1A6842
:1043600042F010021A60A368286823F44023002753
:10437000A3604FEA800C02460426B946B8FBFCF362
:104380009BB2002B08BF012303F1010B06FB03F1D5
:1043900006FB0BFAB8FBF1F1B8FBFAFA091ACAEB03
:1043A000000A514584BF51461FFA8BF3914298BFD2
:1043B000374606F1010684BF11464B46212E844440
:1043C00002D00A469946D9E76422B0FBF2F000EB2E
:1043D0004000814212D22268391F032998BF42F45B
:1043E0000032013F3F0622F01F2207F0F85722F06B
:1043F000FF023A43C3F30C031343236023682A7973
:1044000023F000532360A36823F0130312B142F09A
:1044100010021343A3606B7922685B0322F40052FD
:1044200003F40053134323606368AA7943F0C02365
:1044300043F470236360A3680AB143F40023EA796C
:104440000AB143F48023A360BDE8F88FF16E000049
:10445000BA6E0000D86400002C80044008B530B962
:104460000748084A084B4FF4B771FFF753F94FF468
:10447000E13303600023037143718371C37108BD8D
:10448000F16E0000D96E0000D864000042680B4B4A
:1044900030B522F0402244680B4001F4804522F4FC
:1044A000F8122C431A4344EA02034360436840F283
:1044B0001A50194208BF002030BD00BF00001F4045
:1044C0000A44914206D043681B02FCD511F8013B17
:1044D000C360F6E7704708B50A4491422ED043689E
:1044E0009B0227D4436813F4002F06D04FF4002119
:1044F000FFF7CCFF40F21D5008BD13F4802F06D00B
:104500004FF48021FFF7C2FF40F21E5008BD13F4A4
:10451000003F06D04FF40031FFF7B8FF40F21F50C4
:1045200008BDDB03DBD54FF48031FFF7AFFF4FF45D
:10453000A46008BDC36801F8013BCEE7002008BDB8
:1045400008B5034A034B04481B681168984708BD27
:10455000A811FF1FAC11FF1F00400C4010B50C4606
:1045600031B91048104A114B40F24531FFF7D2F8EB
:10457000036823F0004323F4E0130360036823F48B
:10458000E01323F4A06303600846012340F8103BC6
:104590000021202201F0ABFE002384F8413084F892
:1045A000403010BD916F00004A6F0000BA650000F6
:1045B00010B50C4631B91248124A134B40F25A3129
:1045C000FFF7A8F8D0F8803023F0004323F4E0137D
:1045D000C0F88030D0F8803023F4E01323F4A063D7
:1045E000C0F880300846012340F8103B002120220B
:1045F00001F07DFE002384F8413084F8403010BD86
:10460000916F0000606F0000BA6500002DE9F84F5F
:1046100005460C4631B94948494A4A4B40F26F3188
:10462000FFF778F891F8413091F80C80023351F897
:10463000336003685A030BD503684F6823F4E01313
:1046400043F4802303601FB140F26E728B68B84759
:104650002B68DB0346D594F8413094F84220207B48
:1046600094F80DC004EBC3034FEAD8085B69C2F1AC
:10467000080208FB02F293423CBF94F8413004EB7D
:10468000C3034FEAD00034BF1A7DD2B25FFA80F87C
:10469000B2FBF0F900274F4516D0002319465FFA08
:1046A00083FAC24509D216F803B04FEAC30A0BFADF
:1046B0000AFA41EA0A010133F1E70CF10803064462
:1046C00045F823100137E6E794F8413004EBC303C3
:1046D0005969891A596194F8413004EBC303196987
:1046E0000A441A6194F8413004EBC3035969B1B923
:1046F00094F84100023004EBC000082201F0F7FDFD
:1047000094F841306668013303F0030384F84130C4
:104710002EB12846214640F27172A368B04794F842
:104720004130023354F833302BB928462146BDE8D6
:10473000F84FFFF713BFBDE8F88F00BF916F00007F
:10474000796F0000BA6500002DE9F04705460C4678
:1047500031B94848484A494B40F2B131FEF7DAFFD7
:1047600091F8413091F80C80023351F83360D0F861
:1047700080305A030DD5D0F880304F6823F4E01311
:1047800043F48023C0F880301FB140F26F728B6811
:10479000B847D5F88030DB0341D594F8410094F850
:1047A000423004EBC0004FEAD802406913FB02F12B
:1047B000884205D294F8413004EBC3031A7D01E02E
:1047C0005A43D2B2207B94F80DC0C0085FFA80F83B
:1047D000B2FBF0F70021B94213D00CF1280355F8D1
:1047E00023A000235FFA83F9C14507D24FEAC3092A
:1047F0002AFA09F906F803900133F3E70644013178
:10480000E9E794F8413004EBC3035969891A596107
:1048100094F8413004EBC30319690A441A6194F80F
:10482000413004EBC3035969B1B994F84100023037
:1048300004EBC000082201F05AFD94F8413066688C
:10484000013303F0030384F841302EB1284621469A
:1048500040F27272A368B04794F84130023354F8C2
:1048600033302BB928462146BDE8F047FFF7A0BEFC
:10487000BDE8F087916F0000EF6F0000BA6500009F
:1048800008B5074B196831B90648074A074B4FF47A
:104890008061FEF73FFF0648BDE80840FFF7B6BE5F
:1048A000081AFF1F916F0000316F0000CB6F0000EE
:1048B00000F0024008B5074B596831B90648074A6D
:1048C000074B40F20641FEF725FF0648BDE80840C9
:1048D000FFF73ABF081AFF1F916F00000770000032
:1048E000DD6F000000F0024008B531B91148124AEE
:1048F000124B40F28111FEF70DFF4B7AC3B10269F2
:10490000CA60032B14D143690B6183694B61C3698E
:104910008B6104238A69012B4FEA02228A6105D93F
:10492000C87D02438A61013B0439F3E7002BFAD1C9
:1049300008BD00BF607000004871000002710000F7
:10494000F8B531B90F48104A104B40F29F11FEF7ED
:10495000E1FE4C688D68436C6C43DBB2A408A34253
:1049600003D2A41AA34238BF1C460023A34203EB80
:10497000020505D0CE68076A46F825700133F5E7D1
:104980002846F8BD60700000647100001B710000D3
:1049900070B531B91048114A114B4FF4F671FEF75A
:1049A000B9FE4C688D68436C6C43C3F30743A4089D
:1049B000A34203D2A41AA34238BF1C460023A34239
:1049C00003EB020505D00E6956F825500562013348
:1049D000F5E7284670BD00BF607000004D70000014
:1049E0001B710000F8B506460C4629B93548364A11
:1049F000364B4FF49D6130E0056B8D6015F0C00FB4
:104A000005D06F064CBF0B694B6903B19847304B1B
:104A10002B40BBB115F4702F08D0236833B9276A37
:104A200027B13046214640F2A66209E0616830466F
:104A3000FFF75AFF22682AB9276A1FB1304621467C
:104A4000636AB847234B2B40002B2FD0236833B920
:104A50001C48214A214B40F2C721FEF75BFE236828
:104A60005B784BB91E4B2B4033B1276A27B13046D8
:104A7000214640F2A76217E0A80605D52168E26842
:104A80003046FFF75DFF07E015F0100206D0216801
:104A9000E2683046FFF77CFFE06007E0A90705D534
:104AA000276A1FB130462146636AB847EA0502D536
:104AB000A36903B198476B0702D5E36903B198472F
:104AC0003563F8BD6070000036700000BA65000004
:104AD00001000F003A0070113071000013710000E6
:104AE0000000701108B5074B196831B90648074A2C
:104AF000074B40F20A51FEF70DFE0648BDE808409C
:104B0000FFF770BFB011FF1F607000002070000041
:104B10002071000000100B4008B5114B984215D0D1
:104B200003F58053984213D003F58053984211D077
:104B300003F5805398420FD003F5FA2398420DD025
:104B40000848094A094BA521FEF7E4FD002008BDED
:104B5000012008BD022008BD032008BD042008BDB7
:104B600000A006409671000040720000AC71000089
:104B700070B5044616460D4621B95148514A524B6C
:104B8000CC2120E0514B984213D003F5805398423A
:104B90000FD003F5805398420DD003F5805398420F
:104BA00009D003F5FA23984214BF4FF0FF330123D5
:104BB00002E0082300E00123AA79934205DA404885
:104BC000404A434BCE21FEF7A5FD404B9C4213D0FB
:104BD00003F580539C420FD003F580539C420DD0C7
:104BE00003F580539C4209D003F5FA239C4214BF7D
:104BF0004FF0FF33012302E0082300E00123EA79AC
:104C0000934204DA2E482F4A324BCF21DBE720466D
:104C1000FFF782FF304B53F82020130C03F1804341
:104C200003F58E2392B21968012000FA02F20A43BA
:104C30001A60E37803F0F303E3702B6822781B011A
:104C4000B6FBF3F399B202F0E00242EA1122DBB2C2
:104C5000227063702B68A27A76011B01B6FBF3F316
:104C600002F0E00203F01F031343A372A3782A7932
:104C700003F0EC0312B142F010021343A3706B79FE
:104C800022785B0102F0DF0203F02003134323705C
:104C9000AB79E374EB796375237C43F08803237469
:104CA000637C43F0C0036374E3782A7ADBB20AB111
:104CB00043F008036A7A0AB143F00403E37070BD5D
:104CC0009671000076710000D864000000A00640D4
:104CD000C6710000037200005472000008B530B9BC
:104CE00009480A4A0A4B40F22D11FEF713FD4FF412
:104CF000E1330360012200238371C27103714371A8
:104D00000372437208BD00BF9671000080710000FD
:104D1000D864000002794179037B807C1B0443EA5C
:104D20000123134343EA006070470A44914206D0CE
:104D300003791B06FCD511F8013BC371F6E77047F8
:104D400070B505460C468E18B44213D0AB7D6BB9D6
:104D50002846FFF7DFFF03070ED441070FD4820771
:104D600010D4C307F2D54FF47D7070BDEB7904F811
:104D7000013BE9E7002070BD40F2F13070BD40F228
:104D8000F23070BD40F2F33070BD000008B5034A48
:104D9000034B04481B681168984708BDB811FF1FF2
:104DA000B411FF1F00A00640FFF7F0BF08B5034A8B
:104DB000034B04481B685168984708BDB811FF1F92
:104DC000B411FF1F00B00640FFF7F0BF08B5034A5B
:104DD000034B04481B689168984708BDB811FF1F32
:104DE000B411FF1F00C00640FFF7F0BF08B5034A2B
:104DF000034B04481B68D168984708BDB811FF1FD2
:104E0000B411FF1F00D00640FFF7F0BF08B5034AFA
:104E1000034B04481B681169984708BDB811FF1F70
:104E2000B411FF1F00A00E40FFF7F0BF10B5FEF752
:104E3000D9FA4FF4E131034601220248BDE810409F
:104E4000FDF7A0BB00A0064010B541F244030F4A95
:104E50000F4C1049D15004F11400FEF7C7FB0E4B64
:104E60000E4A1A600020014604F10802FEF72CFCED
:104E700000210A460220FEF751FB04F10C00FEF768
:104E8000FFF9074B074A1A6010BD00BF00700440CD
:104E90006872000000002602041AFF1F001BB70002
:104EA0000000FF1F000E27070E4B1A6842F48062B5
:104EB0001A600D4A116C21F4E06141F440711164F3
:104EC000516C21F4E06141F4407151641A6842F47C
:104ED00000621A60054B5A6A22F4E06242F4807262
:104EE0005A6270473880044000A0044000B004407B
:104EF000F8B555EC104BC5F30A52A2F2FF33132B51
:104F0000064614DC002B3CDB2149194101EA05026D
:104F100052EA040721D025EA0103002251EC100BCC
:104F2000C6E90023FBF7D8FB41EC100BF8BD332B8F
:104F30001DDCA2F213424FF0FF31D14011EA040709
:104F40000BD024EA01022B4651EC100BC6E90023DA
:104F5000FBF7C2FB41EC100BF8BD51EC100B3A46CD
:104F600001F0004386ED000B43EC102BF8BD51EC33
:104F7000100B002201F0004386ED000B43EC102BD8
:104F8000F8BD05F000430022C0E90023F8BD00BFD2
:104F9000FFFF0F002DE9F0432DED068BB0EE40AA88
:104FA000F0EE60AAB0EE418AF0EE618A9F4E8BB0BF
:104FB00000F092F996F90030B0EE409AF0EE609A67
:104FC000013306D0B0EE480AF0EE680A00F0D6FFD2
:104FD00040B9B0EE490AF0EE690A0BB0BDEC068BA1
:104FE000BDE8F083B0EE4A0AF0EE6A0A00F0C6FFB0
:104FF000044668BB51EC180B00220023FBF788FF26
:105000000028E6D08A4B96F900108A4808940022BE
:105010000124CDE906234B1C8DED02AB8DED048BF5
:10502000009401900DD002290BD0684600F0D0FF0B
:10503000002800F09D80089B1BB101F00FF9089B30
:1050400003609DED060B0BB0BDEC068BBDE8F08355
:105050000024002551EC1A0B22462B46FBF758FF83
:10506000E8B151EC180B22462B46FBF751FF0746DF
:10507000002854D06F4A96F9003001920121002295
:105080008DED02AB8DED048BCDE9064500910892C4
:10509000002BCAD0664B0022CDE90623D1E7B0EE43
:1050A000490AF0EE690A00F061FF0746002864D063
:1050B0000024002551EC190B22462B46FBF728FF54
:1050C000002886D0B0EE4A0AF0EE6A0A00F04EFFE1
:1050D00000283FF47EAFB0EE480AF0EE680A00F018
:1050E00045FF00283FF475AF96F90030514A019210
:1050F00004210022022B8DED02AB8DED048BCDE956
:1051000006450091089200F08C80684600F060FF30
:10511000002800F08680089B002B92D08DE7B0EE2F
:10512000480AF0EE680A00F021FF00283FF451AF72
:1051300051EC180B22462B46FBF7F4FE00283FF4F7
:1051400048AF3C4B3178089701228DED02AB8DEDD5
:10515000048B8DE80C00002941D0374B0022022936
:10516000CDE9062335D101F079F821230360D2E798
:1051700001F074F8212303605DE7B0EE4A0AF0EE17
:105180006A0A00F0F3FE002892D0B0EE480AF0EE72
:10519000680A00F0EBFE00288AD0B0EE490AF0EE73
:1051A000690A00F0EBFEE8B9224B3678089001223C
:1051B0008DED02AB8DED048B8DE80C007EB12046A9
:1051C000294622462B46FBF765FD022ECDE9060156
:1051D000C9D0684600F0FCFE00289CD1C3E7CDE9A9
:1051E0000645F6E7134A96F90030089703218DED3E
:1051F00002AB8DED048B8DE806000BBBDFF83C9015
:105200004FF0604822462B4651EC1A0BCDE9068937
:10521000FBF788FE00283AD196F90030022B7FF484
:1052200074AF01F01BF82223036074E71400FF1F22
:105230000000F03F887200000000F0FFFFFFEF4722
:10524000DFF88C904FF0000822462B4651EC1A0BE9
:10525000CDE90689FBF766FE0028DDD00022194B58
:1052600051EC180BFBF7ECFB04460D4645EC104BDC
:1052700000F0BAFE224651EC100B2B46FBF748FE1D
:105280000028C9D1104B0022CDE90623C4E7002233
:105290000C4B51EC180BFBF7D3FB04460D4645ECC9
:1052A000104B00F0A1FE224651EC100B2B46FBF7F1
:1052B0002FFE0028B0D1054B4FF06042CDE9062308
:1052C000AAE700BF0000E03F0000F0FFFFFFEFC7CC
:1052D0000000F07F000000002DE9F04F55EC114B6D
:1052E0002DED048BB0EE419AF0EE619AB0EE408A5B
:1052F000F0EE608A25F0004858EA04018FB057ECC0
:10530000106B33D06C4B27F00049994528DC25D031
:10531000694B984524DC00F08A80002FC0F28B8016
:105320004FF0000A9CBB644B984500F0A280634B91
:10533000984574D0B5F1804F00F00A84604B9D42CF
:1053400025D1002F23DBB0EE480AF0EE680A0FB03B
:10535000BDEC048BBDE8F04F00F032BD002ED7D07D
:1053600009F1404303F58013334306D19FED4E0B03
:105370000FB0BDEC048BBDE8F08F52480FB0BDEC10
:10538000048BBDE8F04F00F027BE4FF0000AB0EEEE
:10539000480AF0EE680A00F0DFFD0EBBB9F1000F1D
:1053A00004D0464B27F040429A4219D1002DC0F25A
:1053B0001984002FDCDA09F1404909F580195AEA0D
:1053C000090940F0958451EC100B02460B46FBF79F
:1053D00083F902460B46FBF75DFC41EC100BC7E777
:1053E000FB0F03F1FF3B5AEA0B0258D0364B9845AE
:1053F00070DD03F10473984540F3FE83334B994508
:1054000040F3A083002D40F3A08329A1D1E900013E
:1054100002460B46FBF714FB41EC100BA8E7002DEE
:10542000C0F24C84B0EE480AF0EE680AA0E7002C07
:105430003FF473AF94E7264B98452DDCA3F15473EA
:1054400098457FF76DAF4FEA285340F213429342DD
:1054500040F35C84C3F58663033324FA03F202FA53
:1054600003F3A3427FF45CAF02F00102C2F1020A2F
:1054700058E709F1404303F5801333433FF476AF17
:10548000124B994540F3A283002DC0F25E83B0EE2B
:10549000490AF0EE690A6BE74FF0020A42E751EC65
:1054A000180B92E7AFF30080000000000000F03F0F
:1054B0009C7500883CE4377E0000F07F0000F03FE0
:1054C0000000E03FC07200000000E041FFFFEF3F3E
:1054D000FFFF3F43B9F5801F80F2EE8351EC100BC4
:1054E0000022AB4BFBF7ACFA0B4641EC100B6FF014
:1054F00034029946A74B4FEA2951C9F31309A1F287
:10550000FF3149F07F56994501EB020C46F44016F5
:1055100040F3CF83A04B994540F3108400270CF152
:10552000010CA6F580163B469C4ACDF804C0DB0072
:105530000B931344D3E9004559EC108B22462B46BC
:1055400040463146FBF7C8F82246CDE908012B4614
:1055500040463146FBF7C2F802460B460020904910
:10556000FBF798FBCDE90C01DDE90C23DDE908012F
:10557000FBF766FACDE9040171109DED047B41F063
:10558000005101F50021CB1900218DED027B029124
:10559000B146DDE90267002230463946CDE90623EF
:1055A000FBF74EFA02460B46DDE90801FBF794F8DB
:1055B00022462B46CDE90801DDE90601FBF78CF810
:1055C00002460B4640464946FBF786F802460B4624
:1055D00030463946FBF734FA02460B46DDE908014E
:1055E000FBF77AF8DDE90C23FBF72AFACDE906018F
:1055F000DDE9040102460B46FBF722FA02460B46A0
:1056000004460D46FBF71CFA51A3D3E9002380465C
:10561000894620462946FBF713FA4FA3D3E9002316
:10562000FBF75CF822462B46FBF70AFA4CA3D3E9BA
:105630000023FBF753F822462B46FBF701FA4AA357
:10564000D3E90023FBF74AF822462B46FBF7F8F98B
:1056500047A3D3E90023FBF741F822462B46FBF78B
:10566000EFF945A3D3E90023FBF738F802460B46D0
:1056700040464946FBF7E4F9DDE9042304460D46BC
:1056800030463946FBF72AF8DDE90623FBF7D8F95F
:1056900022462B46FBF722F83246804689463B4697
:1056A00030463946FBF7CCF900223E4BCDE90C01E0
:1056B000FBF714F842464B46FBF710F802980D46EC
:1056C000044622462B4630463946FBF7B9F92246B6
:1056D0002B46CDE90801DDE90601FBF7B1F900220F
:1056E00006460F46204629462E4BFAF7F5FFDDE920
:1056F0000C23FAF7F1FF02460B4640464946FAF7FB
:10570000EBFFDDE90423FBF79BF902460B4630462D
:105710003946FAF7E3FF8046894642464B46DDE9C3
:105720000801FAF7DBFF029815A3D3E9002304462A
:105730000D46FBF785F914A3D3E90023CDE9060153
:1057400020462946FBF77CF9DDE9082306462BE0D5
:10575000EF4E454A287ECA3F65DBC9934A86CD3F56
:1057600001411DA96074D13F4D268F515555D53F3C
:10577000FFAB6FDBB66DDB3F033333333333E33FD4
:10578000000000E009C7EE3FF5015B14E02F3EBECC
:10579000000040438E98030079B60B00B072000001
:1057A0000000F03F000008400F4620462946FAF767
:1057B00093FF02460B4640464946FAF78DFFBBA3CE
:1057C000D3E90023FBF73CF902460B463046394645
:1057D000FAF784FF0B9CB24B2344D3E90023FAF77A
:1057E0007DFFDDF804C0064660460F46FBF7C2F8B1
:1057F000AC4B234493ED007B8046894632463B46C2
:10580000DDE906018DED047BFAF768FFDDE904238D
:10581000FAF764FF42464B46FAF760FF02984246A9
:105820004B4604460D46FAF757FFDDE90423FAF725
:1058300053FFDDE90623FAF74FFF02460B463046D9
:105840003946FAF749FF0AF1FF3C5CEA0B0CCDE957
:10585000020140F0B6819FED7E7B8DED047B5BEC19
:1058600019AB4FF0000A52465B4651EC190BFAF7A0
:1058700033FF2B462246FBF7E3F8DDE9022380469F
:10588000894651EC190BFBF7DBF802460B46404604
:105890004946FAF723FF2B46CDE90201224650463E
:1058A0005946FBF7CDF806460F463B46DDE90201B7
:1058B0003246FAF713FF7C4B9942804689460D46E3
:1058C00040F3508101F13F4303F5E003034340F00F
:1058D000FF8161A3D3E90023DDE90201FAF7FEFEAF
:1058E000324682468B463B4640464946FAF7F4FE2E
:1058F00002460B4650465946FBF732FB002840F063
:10590000E781CC464FEA2C53A3F2FE334FF48010CC
:1059100018412844C0F30A51DFF898E1A1F2FF349E
:105920004EFA04FEC1F58261C0F3130420EA0E03AF
:10593000033144F4801040FA01F1002D0691BCBF00
:1059400049420691002230463946FAF7C5FE06461E
:105950000F463246DDE902013B46FAF7BFFE069CE0
:1059600024050B9400243EA3D3E9002320460D46D2
:10597000FBF766F83246804689463B462046294674
:10598000FAF7AAFE02460B46DDE90201FAF7A4FE89
:1059900035A3D3E90023FBF753F835A3D3E900235C
:1059A00006460F4620462946FBF74AF802460B46B4
:1059B00030463946FAF792FE06460F4632463B46D7
:1059C00040464946FAF78AFE42464B4604460D4693
:1059D000FAF782FE02460B4630463946FAF77CFE5D
:1059E000224682468B4620462B462946FBF728F85E
:1059F00021A3D3E9002306460F46FBF721F820A395
:105A0000D3E90023FAF768FE32463B46FBF718F865
:105A10001DA3D3E90023FAF761FE32463B46FBF7AC
:105A20000FF81BA3D3E90023FAF756FE32463B4694
:105A3000FBF706F818A3D3E90023FAF74FFE324626
:105A40003B46FAF7FDFF02460B46204634E000BF16
:105A5000000000000000F0BFFE822B654715973C58
:105A600000000000432EE63FEF39FAFE422EE63FEB
:105A7000396CA80C615C20BED0A4BE726937663E4A
:105A8000F16BD2C541BDBB3E2CDE25AF6A56113F3E
:105A900093BDBE166CC1663F3E5555555555C53F25
:105AA000A072000090720000FFFF8F40FD033ADCFF
:105AB00009C7EE3FFFFF0F002946FAF70DFE064625
:105AC0000F4632463B4620462946FAF7B9FF0022E8
:105AD00080468946304639464FF08043FAF7FCFD50
:105AE00002460B4640464946FBF7D4F85246064666
:105AF0000F4620465B462946FAF7A2FF52465B4610
:105B0000FAF7ECFD02460B4630463946FAF7E4FD5B
:105B100022462B46FAF7E0FD02460B460020A2493A
:105B2000FAF7DAFD0B9C0B462144B1F5801F0246C3
:105B3000C0F209810B46DDE90401FAF781FF41EC6F
:105B4000100B15E4002DFFF660AC9FED870B0FE402
:105B500051EC180B18EE102A0B46FAF771FF41ECC6
:105B6000100B05E4914B21F0004C9C4540F3DD8087
:105B700001F17D5303F53C1303F55053034310D15A
:105B800032463B46CDF804C0FAF7A6FD02460B4666
:105B9000DDE90201FBF7D0F9DDF804C000283FF48D
:105BA000B1AE73A3D3E90023DDE90401FAF748FF9E
:105BB0006FA3D3E90023FAF743FF41EC100BFFF783
:105BC000D7BB9FED6D7B8DED047B48E6002DBCDAE5
:105BD00019EE904A19EE102A04F1004343EC102B01
:105BE000FFF7C6BB53EC102B00206F49FBF752F8B0
:105BF00041EC100BFFF7DDBB6D4B9945A2DD6A4B05
:105C000099453FF7FFAB51EC100B0022664BFAF7BA
:105C100063FD5BA3D3E9002304460D46FAF710FFAA
:105C200059A3D3E900238046894620462946FAF73E
:105C300007FF2246CDE902012B4620462946FAF706
:105C4000FFFE002206460F4620462946594BFAF72A
:105C5000F7FE02460B464EA1D1E90001FAF73CFDE2
:105C600022462B46FAF7ECFE02460B46002052492C
:105C7000FAF732FD02460B4630463946FAF7E0FEA7
:105C800045A3D3E90023FAF7DBFE02460B46DDE924
:105C90000201FAF721FD06460F4632463B464046D2
:105CA0004946FAF71BFD002004460D4642464B4686
:105CB000C1E500273B4637E400221BE400203A49B7
